:1000000029C0000043C0000068C000008DC000008F
:100010003CC000003AC0000038C0000036C00000FC
:1000200034C0000032C0000030C000002EC000000C
:100030001AC1000042C1000067C100008CC100006D
:1000400024C0000022C0000020C00000E2C0000068
:100050001CC0000011241FBECFE5D8E0DEBFCDBF1D
:1000600010E0A0E6B0E0E6E3F4E002C005900D92F7
:10007000AA36B107D9F720E0AAE6B0E001C01D9288
:10008000AA37B207E1F78ED1D4C1BACF1F920F922F
:100090000FB60F9211242F933F934F935F936F935B
:1000A0007F938F939F93AF93BF93EF93FF93E091D1
:1000B0006E00F0916F000995FF91EF91BF91AF91A4
:1000C0009F918F917F916F915F914F913F912F9170
:1000D0000F900FBE0F901F9018951F920F920FB6A2
:1000E0000F9211242F933F934F935F936F937F93BE
:1000F0008F939F93AF93BF93EF93FF93E091700023
:10010000F09171000995FF91EF91BF91AF919F918F
:100110008F917F916F915F914F913F912F910F90B0
:100120000FBE0F901F9018951F920F920FB60F924F
:1001300011242F933F934F935F936F937F938F93EC
:100140009F93AF93BF93EF93FF93E0917200F09171
:1001500073000995FF91EF91BF91AF919F918F919E
:100160007F916F915F914F913F912F910F900FBEB3
:100170000F901F901895FC0190936B0080936A007C
:10018000808182B9868181B98581813039F486B7D1
:10019000816086BF8FB780688FBF06C096B78923FE
:1001A00086BF8FB78F778FBF218132814381548182
:1001B00060E072E18AE790E01AD1DA01C901409764
:1001C000A109B109B695A7959795879580B986B786
:1001D000846486BF089584EA86BF06B607FEFDCF15
:1001E0000895CF93DF93D82FC62FF5DFD3B986B705
:1001F000806886BF06B607FEFDCFC3B986B78068A4
:1002000086BF06B607FEFDCF84E986BFDF91CF919A
:1002100008951F920F920FB60F9211242F933F93C0
:100220004F935F936F937F938F939F93AF93BF93FE
:10023000EF93FF93E0916A00F0916B000780F085E7
:10024000E02D0995FF91EF91BF91AF919F918F9113
:100250007F916F915F914F913F912F910F900FBEC2
:100260000F901F9018951F920F920FB60F921124A6
:100270002F933F934F935F936F937F938F939F93AE
:10028000AF93BF93EF93FF93E0916C00F0916D00FB
:100290000780F085E02D0995FF91EF91BF91AF9117
:1002A0009F918F917F916F915F914F913F912F918E
:1002B0000F900FBE0F901F9018951F920F920FB6C0
:1002C0000F9211242F933F934F935F936F937F93DC
:1002D0008F939F93AF93BF93EF93FF93E091780039
:1002E000F09179000995FF91EF91BF91AF919F91A6
:1002F0008F917F916F915F914F913F912F910F90CF
:100300000FBE0F901F9018951F920F920FB60F926D
:1003100011242F933F934F935F936F937F938F930A
:100320009F93AF93BF93EF93FF93E0917600F0918B
:1003300077000995FF91EF91BF91AF919F918F91B8
:100340007F916F915F914F913F912F910F900FBED1
:100350000F901F9018951F920F920FB60F921124B5
:100360002F933F934F935F936F937F938F939F93BD
:10037000AF93BF93EF93FF93E0917400F0917500FA
:100380000995FF91EF91BF91AF919F918F917F91CF
:100390006F915F914F913F912F910F900FBE0F90F2
:1003A0001F901895CF93DF93CDB7DEB729970FB67F
:1003B000F894DEBF0FBECDBF89E0E0E6F0E0DE01DD
:1003C000119601900D928A95E1F7CE010196D3DE48
:1003D00010E0612F80ED05DF1F5F2FEF84E39CE0CD
:1003E000215080409040E1F700C00000F2CFA1E230
:1003F0001A2EAA1BBB1BFD010DC0AA1FBB1FEE1F9F
:10040000FF1FA217B307E407F50720F0A21BB30BE9
:10041000E40BF50B661F771F881F991F1A9469F765
:1004200060957095809590959B01AC01BD01CF01C1
:060430000895F894FFCFCF
:0A043600D0A0860100FE01000000C6
:00000001FF
