:1000000029C000003AC0000038C0000036C000001F
:1000100034C0000032C0000030C000002EC000001C
:100020002CC000002AC0000028C0000026C000002C
:1000300024C0000022C0000020C000001EC000003C
:100040001CC000001AC0000018C0000016C000004C
:1000500014C0000011241FBECFE5D8E0DEBFCDBF25
:1000600010E0A0E6B0E0ECE8F1E002C005900D92EF
:10007000A836B107D9F776D087C0C2CFC39A83ED2F
:1000800090E30197F1F700C00000C39808958AB388
:100090008F708ABBC29AC198F1DF8AB3806F8ABB26
:1000A000C2980895CF93C82FF2DFCBBB88B3897F66
:1000B00088BBE4DFCF91089581E0F4CF08958130CB
:1000C00031F4603158F480E8860FECCF0895823027
:1000D00029F4603118F480EC860FE4CF089587E8A6
:1000E00093E10197F1F700C0000087B38E6087BBF2
:1000F00088B3817F88BB8FEF8ABB85EA9EE001973A
:10010000F1F700C00000D8DF88E3CCDF86E0CADF6B
:1001100080E8C8DF8FE0C6CF0895CF93C82FB7DF40
:10012000CBBBC298C19AAADFCF910895CF93DF933A
:10013000EC018881882329F02196EFDF89918111D4
:10014000FCCFDF91CF91089583E389B95998539AF1
:10015000549A08955D9BFECF8CB908955F9BFECFA6
:100160008CB10895BCDFF0DF60E081E0A8DF80E6BD
:1001700090E0DCDF88E7EEDF89E7ECDF60E082E03B
:0C0180009EDFECDFCADFFDCFF894FFCF5C
:08018C00554152542054780043
:00000001FF
