S01100005350495F536C6176652E73726563CD
S113000029C000002FC000002DC000002BC000003C
S113001029C0000027C0000025C0000023C0000044
S113002021C000001FC000001DC000001BC0000054
S113003019C0000017C0000015C0000013C0000064
S113004011C000000FC000000DC000000BC0000074
S113005009C0000011241FBECFE5D8E0DEBFCDBF2C
S11300600ED01FC0CDCF90E497BB87B38F7487BBEE
S11300709DB908958FB9779BFECF8FB10895F3DFB3
S11300808FEF8ABBCFEF2FE38DE093E021508040C8
S11300909040E1F700C000008C2FECDF8BBBC15017
S10900A0F2CFF894FFCF3B
S9030000FC
