:1000000029C000003AC0000038C0000036C000001F
:1000100034C0000032C0000030C000002EC000001C
:100020002CC000002AC0000028C0000026C000002C
:1000300024C0000022C0000020C000001EC000003C
:100040001CC000001AC0000018C0000016C000004C
:1000500014C0000011241FBECFE5D8E0DEBFCDBF25
:1000600010E0A0E6B0E0E2E4F5E002C005900D92F9
:10007000A037B107D9F77BD162C2C2CF81B3807FED
:1000800081BB81B3806F81BB8FEF82BB0895AF923C
:10009000BF92CF92DF92EF92FF920F931F93CF9375
:1000A000DF9300E610E0C0E0D0E0D80141E050E08E
:1000B0000F2EF8E6CF2EF0E0DF2EF02DA12CB12C84
:1000C00092B3BA010C9002C0660F771F0A94E2F750
:1000D0009A0112960C90129702C0220F331F0A94B5
:1000E000E2F7262B822F892B9A0114960C901497F5
:1000F00002C0220F331F0A94E2F7282BCA0116967A
:100100000C90169702C0880F991F0A94E2F7822B71
:1001100082BB92B3F80180810E5F1F4F9A0102C02B
:10012000220F331F8A95E2F7822F8095892382BBA5
:10013000F6017A016A2D7B2D05C06F5F7F4F8FEF2F
:10014000E81AF80A80B32081329690E0022E02C0AD
:10015000959587950A94E2F780FD4FC0CA0102C0C9
:10016000880F991F2A95E2F79C0180B390E08223C3
:100170009323892BD1F3C130D105C1F01CF4209712
:1001800041F03BC0C230D105F1F0C330D10541F19F
:1001900034C061157105E9F161307105E1F162303A
:1001A0007105D9F16330710541F539C061157105EB
:1001B000C1F161307105B9F162307105B1F163309F
:1001C0007105D9F434C06115710599F1613071057B
:1001D00091F16230710589F16330710571F42FC0BE
:1001E0006115710571F16130710569F16230710558
:1001F00061F16330710569F52AC094E0E916F104F4
:100200000CF49BCF2196C430D10509F059CF8EE470
:1002100026C087E324C084E322C081E320C081E2BA
:100220001EC088E31CC085E31AC082E318C080E3C7
:1002300016C089E314C086E312C083E310C08DE3C7
:100240000EC08FE20CC08AE20AC08DE208C08BE2C9
:1002500006C084E0E816F1040CF46FCF8EE4DF9161
:10026000CF911F910F91FF90EF90DF90CF90BF90B3
:10027000AF900895C39A83ED90E30197F1F700C022
:100280000000C39808958AB38F708ABBC29AC19840
:10029000F1DF8AB3806F8ABBC2980895CF93C82FCD
:1002A000F2DFCBBB88B3897F88BBE4DFCF910895B1
:1002B00081E0F4CF0895813031F4603158F480E862
:1002C000860FECCF0895823029F4603118F480EC69
:1002D000860FE4CF089587E893E10197F1F700C016
:1002E000000087B38E6087BB88B3817F88BB8FEFA8
:1002F0008ABB85EA9EE00197F1F700C00000D8DFD5
:1003000088E3CCDF86E0CADF80E8C8DF8FE0C6CFB5
:100310000895CF93C82FB7DFCBBBC298C19AAADF8D
:10032000CF9108956B3249F01CF46A32A1F01BC0E2
:100330006D3239F06F3249F016C0BC01640F751F81
:1003400013C0BC01641B750B0FC04115510559F05A
:10035000BA01CED009C0849FB001859F700D949FD3
:10036000700D112401C00895862F972F0895B3DFD3
:1003700085DED1E3A12CB12CC12CD12C00E010E002
:1003800066246394712C812C912C0F2EFAE0EF2EB1
:10039000F12CF02D7CDEC82F90ED980F9A3060F58F
:1003A000B8DF0115110599F4C601880F991FCC0C0F
:1003B000DD1CCC0CDD1CCC0CDD1CC80ED91E8C2F1A
:1003C0000C2E000C990BC097C80ED91E15C0013019
:1003D000110591F4C501880F991FAA0CBB1CAA0C2A
:1003E000BB1CAA0CBB1CA80EB91E8C2F0C2E000C1B
:1003F000990BC097A80EB91EC13239F459DFA82C49
:10040000B92CC82CD92CD1E3C5CFCB3209F459C0B3
:10041000CD3209F45BC0CF3209F462C0CA3289F42C
:100420005AC08BE276DFDBE260C08DE272DFDDE294
:100430005CC08AE26EDFDAE258C08FE26ADFDFE298
:1004400054C0CD3309F0A6CF0130110509F0A2CF79
:100450008DE35FDF60E082E02EDFA5016D2FC60136
:1004600061DF8C01009719F480E353DF18C0C82DB9
:10047000D92DB7013DD0CB0121960097D1F7219717
:1004800072F06C2F82E017DFC801B70131D0C62EA1
:10049000D72E805D3EDF0C2D1D2D219790F79FEB11
:1004A00027E289E0915020408040E1F700C0000041
:1004B000FFDED1E3A82CB92CC82CD92C082D192D7E
:1004C00069CF0115110509F4ACCF64CF01151105F1
:1004D00009F4ABCF5FCF0115110509F4AACF5ACFAC
:1004E0000115110509F4A9CF55CF062D172D52CFAF
:1004F00097FB072E16F4009406D077FD08D00BD09A
:1005000007FC05D03EF4909581959F4F0895709516
:1005100061957F4F0895AA1BBB1B51E107C0AA1F1D
:10052000BB1FA617B70710F0A61BB70B881F991F94
:100530005A95A9F780959095BC01CD010895F8943E
:02054000FFCFEB
:10054200040005000600070000000100020003008D
:00000001FF
