:1000000029C000003AC0000038C0000036C000001F
:1000100034C0000032C0000030C000002EC000001C
:100020002CC000002AC0000028C0000026C000002C
:1000300024C0000022C0000020C000001EC000003C
:100040001CC000001AC0000018C0000016C000004C
:1000500014C0000011241FBECFE5D8E0DEBFCDBF25
:1000600010E0A0E6B0E0ECE8F1E002C005900D92EF
:10007000A237B107D9F77CD087C0C2CFC39A89EF26
:1000800090E00197F1F700C00000C39889EF90E07D
:100090000197F1F700C000000895CF93C82FC198D1
:1000A000C2988BB39C2F907F8F70892B8BBBE6DF20
:1000B0002BB330E1C39FC0011124922F9F70892B75
:1000C0008BBBDCDFCF91089581E0E7DF83EF91E028
:1000D0000197F1F700C00000089583ED90E30197C8
:1000E000F1F700C0000087B38E6087BB88B3817FC3
:1000F00088BB8AB3806F8ABB85EA9EE00197F1F7DF
:1001000000C0000082E0C9DF88E2C7DF86E0C5DF0B
:100110008FE0C3DFD9CF0895CF93C82FC19AC2987B
:100120008BB39C2F907F8F70892B8BBBA7DF2BB35A
:1001300030E1C39FC0011124922F9F70892B8BBB8C
:100140009DDFCF910895CF93DF93EC0188818823C1
:1001500029F02196E1DF89918111FCCFDF91CF91C8
:1001600008958AB3806F8ABB87B38E6087BB08957A
:10017000F8DFB3DF83EC99E00197F1F700C00000EE
:0C01800080E690E0E0DFFFCFF894FFCFB6
:10018C004C6561726E20696E2064657074682E2EE9
:02019C002E0033
:00000001FF
