S01200005350495F4D61737465722E737265635B
S113000029C000002FC000002DC000002BC000003C
S113001029C0000027C0000025C0000023C0000044
S113002021C000001FC000001DC000001BC0000054
S113003019C0000017C0000015C0000013C0000064
S113004011C000000FC000000DC000000BC0000074
S113005009C0000011241FBECFE5D8E0DEBFCDBF2C
S11300600CD01DC0CDCF80EB87BB81E58DB9089541
S11300708FB9779BFECF8FB10895F5DF8FEF8ABBE1
S1130080C0E02FE38DE093E0215080409040E1F701
S113009000C000008C2FECDF8BBBCF5FF2CFF89455
S10500A0FFCF8C
S9030000FC
