S0180000476363426F61726450726F6A656374322E737265630E
S113000029C0000050C0000069C0000082C0000088
S113001029C0000027C0000025C0000023C0000044
S113002021C000001FC000001DC000001BC0000054
S113003019C0000017C0000015C0000013C0000064
S113004011C000000FC000000DC000000BC0000074
S113005009C0000011241FBECFE5D8E0DEBFCDBF2C
S113006002D072C0CDCF85B7816085BF85B78D7F43
S113007085BF85B7846085BF85B7886085BF84B731
S11300808F7B84BF8BB780628BBF8BB780648BBF41
S11300908BB780688BBF8D9A8E9A8F9A7894959837
S11300A096989798FCCF1F920F920FB60F92112437
S11300B02F938F939F93959A2FEF80E792E021508F
S11300C080409040E1F700C0000095989F918F9187
S11300D02F910F900FBE0F901F9018951F920F92A3
S11300E00FB60F9211242F938F939F93969A2FEF0D
S11300F080E792E0215080409040E1F700C000008A
S113010096989F918F912F910F900FBE0F901F90F3
S113011018951F920F920FB60F9211242F938F935D
S11301209F93979A2FEF80E792E021508040904070
S1130130E1F700C0000097989F918F912F910F9045
S10F01400FBE0F901F901895F894FFCF8D
S9030000FC
